:060000000200190202A932
:01000B0032C2
:030013000202F6F0
:08007200750F00D20002001618
:0300160002014A9A
:20007A0000007F05DFFE22AE82AF838E048F051EBEFF011FEC4D600DC007C00612007AD0D1
:20009A0006D00780E62212042F8582167582821203E385128212042F858216758284120303
:2000BA00E385138212042F8582167582881203E385148212042F8582167582861203E385D9
:2000DA00158212042F85821675828C0203E3AF827E007D0674015FFCEFC313FFEE4204ECBC
:2000FA002CFEED14FD70EDEEC313F4F590227F008FF005F07401800225E0D5F0FBF582C01C
:20011A00071200E8900046120081D0070FBF060040DE7582000200E87582FF1200E8900130
:20013A002C1200817582001200E890012C0200817597077592FF759100C237120401D2A80C
:20015A00D2AAD2AF1201087592FFE4F591F5CAF5C9F5B2F5B17401B50F3F7582831203BC70
:20017A0012041D8582087582851203BCE582543FF58212041D85820C1200E89007D01200AC
:20019A00818508821200E89007D0120081750F007582001200E802027D7402B50F0280030C
:2001BA00020251C2AF120132120132850C821200E820B31820B30890000A12008180F574EC
:2001DA00E8250C4004050C8003750C0020B2DC20B20890000A12008180F58508821200E860
:2001FA0020B31820B30890000A12008180F574C4250840040508800375080020B2DC20B247
:20021A000890000A12008180F57582001200E89003E8120081D2AF850C12850A13850E14AE
:20023A00850D158508821200A07516007582801203E3750F00802C7403B50F27C2AF30B25D
:20025A00177582811203BC12041D8582091200E890006412008180E67582001200E8D2AF88
:20027A00750F002000030201617592FF7591FF75CAFF75C9FF75B20075B100AE877F00438F
:20029A0006028E870000000000000000020161C021C0E0C0F0C082C083C007C006C005C0FB
:2002BA0004C003C002C001C000C0D075D000D20020B20C90000512008130B2F4750F03D040
:2002DA00D0D000D001D002D003D004D005D006D007D083D082D0F0D0E0D02132C021C0E0DF
:2002FA00C0F0C082C083C007C006C005C004C003C002C001C000C0D075D000D200E4F51003
:20031A00F51120B3239000051200810510E4B510020511C3742C9510740195115005750FCD
:20033A00028005750F0180DAD0D0D000D001D002D003D004D005D006D007D083D082D0F09C
:05035A00D0E0D02132CB
:1F035F0022AE82AF83EE4F60159000F0C007C00612035FD006D0071EBEFF011F80E72297
:20037E00C007E5827F080000000000001392CCD2CD000000000000C2CDDFEBD00722C00781
:20039E0074007F08000000000000A2CC13D2CD000000000000C2CDDFEBF582D00722C2B6E3
:2003BE00C2CDD2B675CA1075C90012037E75CA0075C90075CA0075C91012039CC2B675CA76
:2003DE000075C90022C2B6C2CDD2B675CA1075C90012037E85168212037E75CA0075C900C3
:2003FE00C2B6227582811203BCAF8275160075828E1203E3747F5FF5167582800203E3E522
:20041E0082FFC4540F75F00AA4FE740F5F2EF58222AF827E0075170A8E188F828E83C00788
:20043E00C006120546AC82D006D007ECC454F0FC75170A7518008F828E83C004120510AED2
:20045E0082AF83D004EC3395E0FDEC4206ED42078E8222AF827E0075170A8E188F828E83BC
:1C047E0012054675170A751800020510AF827E0075170A8E188F828E83020510A7
:06004800E478FFF6D8FD8C
:200026007900E94400601B7A00900582780175A000E493F2A308B8000205A0D9F4DAF275F9
:02004600A0FF19
:20049A00E517451860467A01E51725E0F517E518334012F518E5829517E583951840030AB7
:2004BA0080E6C3E51813F518E51713F517C3E5829517F5F0E58395184005F58385F082C37A
:0D04DA00E51813F518E51713F517DAE12200
:2004E7007A10E4FBFCE58225E0F582E58333F583EB33FBEC33FCEB9517F5F0EC951840060B
:09050700FCABF0438201DADD22B5
:20004E007800E84400600A790175A000E4F309D8FC7800E84400600C7900900001E4F0A3B0
:04006E00D8FCD9FAE7
:0D00190075812112057EE58260030200164C
:20051000C2D5E58330E70DD2D5E4C39582F582E49583F583E51830E70BE4C39517F517E4F6
:160530009518F51812049A30D50BE4C39582F582E49583F5832270
:20054600C2D5E58330E70DD2D5E4C39582F582E49583F583E51830E70DB2D5E4C39517F532
:1805660017E49518F5181204E730D50BE4C39582F582E49583F58322F0
:04057E007582002260
:00000001FF
